:020000040800F2
:100000006807002089010008EF1300089912000812
:10001000ED1300088F020008FB1900080000000023
:10002000000000000000000000000000B1180008FF
:100030009102000800000000B5160008B31800087F
:10004000A3010008A3010008A3010008A301000800
:10005000A3010008A3010008A3010008A3010008F0
:10006000A3010008A3010008A3010008A3010008E0
:10007000A3010008A3010008A3010008A3010008D0
:10008000A3010008A3010008A3010008A3010008C0
:10009000A3010008A3010008A3010008A3010008B0
:1000A000A3010008A3010008A3010008A3010008A0
:1000B00019190008A3010008A3010008A301000802
:1000C000A3010008A3010008A3010008BD17000850
:1000D000A3010008A3010008A3010008A301000870
:1000E000A3010008A3010008A301000800F002F822
:1000F00000F03AF80AA090E8000C82448344AAF188
:100100000107DA4501D100F02FF8AFF2090EBAE885
:100110000F0013F0010F18BFFB1A43F0010318473B
:10012000B4190000D4190000103A24BF78C878C16F
:10013000FAD8520724BF30C830C144BF04680C60ED
:10014000704700000023002400250026103A28BF35
:1001500078C1FBD8520728BF30C148BF0B60704739
:100160001FB51FBD10B510BD00F058F81146FFF7C0
:10017000F7FF01F065FC00F076F803B4FFF7F2FF3B
:1001800003BC00F07DF8000009488047094800479B
:10019000FEE7FEE7FEE7FEE7FEE7FEE7FEE7FEE737
:1001A000FEE7FEE704480549054A064B7047000094
:1001B00015190008ED0000086801002068070020FC
:1001C00068030020680300204FF0000200B51346CA
:1001D00094469646203922BFA0E80C50A0E80C5067
:1001E000B1F12001BFF4F7AF090728BFA0E80C5018
:1001F00048BF0CC05DF804EB890028BF40F8042B11
:1002000008BF704748BF20F8022B11F0804F18BF7D
:1002100000F8012B7047704770477047754600F033
:100220002BF8AE4605006946534620F00700854688
:1002300018B020B5FFF7B6FFBDE820404FF000062C
:100240004FF000074FF000084FF0000B21F00701BE
:10025000AC46ACE8C009ACE8C009ACE8C009ACE801
:10026000C0098D46704710B50446AFF300802046A4
:10027000BDE81040FFF781BF00487047040100202F
:1002800001491820ABBEFEE7260002007047FEE7DA
:10029000704772B6FEE7000010B590F821100024F8
:1002A000022903D00421816301243DE001680A682A
:1002B00022F00E020A6001680A6822F001020A6058
:1002C0001A4A0168914201D1012121E0174A1432F2
:1002D000914201D110211BE0144A2832914201D1F0
:1002E000891515E0114A3C32914201D189140FE081
:1002F0000E4A5032914202D14FF4803108E00B4A4D
:100300006432914202D14FF4801101E04FF08071CC
:10031000064A083A5160012180F82110002180F836
:100320002010416B01B18847204610BD08000240F3
:1003300070B5044600F008F90546601C02D0044878
:100340000078044400F000F9401BA042FAD370BDCD
:10035000040000202DE9F84FDFF8B8910024A9F13E
:10036000040B23460F2709F1040AABF1040EC9E080
:100370000125A5402A40AA427DD1674ED1F804C08C
:10038000ACEB0608B44532D014DCBCF1030F3AD014
:1003900009DCBCF1000F2AD0BCF1010F1CD0BCF16C
:1003A000020F31D11DE0BCF1110F17D0BCF1120FBB
:1003B0002AD119E0B8F5881F19D006DCB8F5803FBE
:1003C00015D0B8F5801F1FD111E0B8F5001F0ED071
:1003D000B8F5041F18D10AE0CB6815E0CB681B1DE7
:1003E00012E0CB6808330FE0CB680C330CE08B686D
:1003F0002BB1012B4FF0080303D0456104E0042327
:1004000002E0056100E00023FF2A01D8064601E072
:1004100000F104064FEA840501D9A5F12005D6F8BC
:10042000008007FA05FC28EA0C0803FA05F548EAFB
:100430000508C6F800804D68ED0062D5374DAE69FD
:1004400046F00106AE61AD6924F0030605F0010532
:100450000095334D06EB050CDCF80850A607360F67
:1004600007FA06F825EA0805DFF8B880404503D109
:100470004FF0000817E044E0DFF8AC80404502D1BF
:100480004FF001080FE0DFF8A480404502D14FF0A3
:10049000020808E0DFF89880404502D14FF00308D9
:1004A00001E04FF0040808FA06F848EA0508CCF81D
:1004B00008804D68D9F80060ED024D4601D516431D
:1004C00000E096432E604D68DAF80060AD025546B4
:1004D00001D5164300E096432E604D68DBF80060BE
:1004E000AD035D4601D5164300E096432E604D688E
:1004F000DEF80060ED03754601D5164300E0964333
:100500002E60641C0D682A46E5407FF431AFBDE8DB
:10051000F88F000008040140000011100010024094
:100520000000014000080140000C014000100140A3
:10053000001401408068084000D0012070470AB1D3
:10054000016170470904FBE70148806870470000BB
:1005500004000020024881680278114481607047DD
:1005600004000020074810B5016841F01001016047
:10057000032000F075F80F2000F006F800F024F8D2
:10058000002010BD0020024070B50D4D04464FF410
:100590007A712878B1FBF0F00A490968B1FBF0F0F4
:1005A00000F0BFFC48B9102C07D200222146501E93
:1005B00000F036F800206C6070BD012070BD0000B6
:1005C00004000020100000200C4808B5816941F0AB
:1005D00001018161816901F001010091C16941F06E
:1005E0008051C161C06900F08050009004484168AA
:1005F00021F0E06141F00071416008BD001002404F
:1006000000000140002809DB00F01F020121914099
:100610004009800000F1E020C0F8001170470000A0
:10062000F0B40E4B1B680C46C3F30223C3F107055D
:10063000042D00D90425191D072901D2002300E04B
:10064000DB1E012606FA05F1491E214099409E4015
:10065000761E16403143F0BC01F0D0B90CED00E03D
:10066000064900F0070208684FF6FF03184040EA09
:100670000220034A10430860704700000CED00E0C0
:100680000000FA052DE9F0470F46050061D0434E02
:10069000306800F00700B84209D2306820F0070047
:1006A00038433060306800F00700B84251D1286804
:1006B0003B4C810712D5400703D5606840F4E060E9
:1006C00060602878000703D5606840F4605060607F
:1006D0006068A96820F0F000084360602878C007CF
:1006E00028D06868012810D02168022810D0890716
:1006F00000292EDA616821F0030101436160FFF7F0
:1007000023FF804641F288390DE021688903EFE735
:100710008901EDE7FFF718FFA0EB0801494502D971
:100720000320BDE8F0876068696800F00C00B0EB5A
:10073000810FEFD1306800F00700B8420BD9306864
:1007400020F0070038433060306800F00700B842FE
:1007500001D00120E5E72878400705D56068E96801
:1007600020F4E060084360602878000706D56068E0
:10077000296920F4605040EAC100606000F018F878
:100780006168084AC1F30311515CC840064908601A
:1007900006480068FFF7F8FE0020C2E7002002408C
:1007A00000100240C21A00081000002008000020BB
:1007B0000E4A51680E4801F00C03042B11D0082B8F
:1007C0000FD10C48C1F38343C903C05C0AD55168FB
:1007D000084AC1F34041921E515C054A5043B0FBA8
:1007E000F1F0704704494843704700000010024090
:1007F00000127A00B21A000800093D002DE9F84FF6
:10080000040070D02078C04DC00749D06868C0F39C
:100810008100012807D06868C0F38100022809D14F
:100820006868C00306D52868800339D56068002849
:10083000E7D035E06068B0F5803F0BD010B1B0F57F
:10084000A02F11D0286820F480302860286820F478
:10085000802002E0286840F480302860606890B111
:10086000FFF772FE06460AE0286840F48020286000
:10087000F0E700BFFFF768FE801B642873D8286884
:100880008003F7D50CE0FFF75FFE064605E000BFEA
:10089000FFF75AFE801B6428F0D828688003F7D43D
:1008A00020789A4E80074FF001094FF0000839D5A3
:1008B000686810F00C0F07D06868C0F38100022848
:1008C00009D16868C00306D42868800714D5206958
:1008D000012808D110E02069B0B1C6F80090FFF7F8
:1008E00033FE074605E00AE1FFF72EFEC01B022893
:1008F000C4D828688007F7D52868616920F0F80017
:1009000040EAC10028600DE0C6F80080FFF71CFE39
:10091000074604E0FFF718FEC01B022823D828680A
:100920008007F7D4207800072CD57948A169D9B180
:10093000C0F80090FFF708FE074604E0FFF704FE4A
:10094000C01B02280FD8686A8007F7D571484FF49A
:10095000FA510068B0FBF1F0009000BF0098411E12
:100960000091FAD20EE080E0C0F80080FFF7ECFDC5
:10097000074604E0FFF7E8FDC01B022875D8686A47
:100980008007F7D42078400760D5E8690027C000C9
:1009900008D4E86940F08050E861E869012700F078
:1009A000805000905C480168C90513D401688346F3
:1009B00041F480710160FFF7C7FD824606E000BF89
:1009C000FFF7C2FDA0EB0A0064284ED8DBF8000058
:1009D000C005F5D5E06801280AD008B1052813D074
:1009E000286A20F001002862286A20F0040002E052
:1009F000286A40F001002862E06841F2883B98B123
:100A0000FFF7A2FD82460BE0286A40F0040028624E
:100A1000EEE700BFFFF798FDA0EB0A0159455AD851
:100A2000286A8007F6D50CE0FFF78EFD824605E0C8
:100A3000FFF78AFDA0EB0A0159454CD8286A8007C8
:100A4000F6D41FB1E86920F08050E861E06988B30E
:100A50006968C1F38101022944D00228C6F8608088
:100A600004D0FFF771FD044638E034E0FFF76CFD79
:100A7000074604E0FFF768FDC01B02282BD8286852
:100A80008001F7D4206AB0F5803F05D16868A1687D
:100A900020F4003008436860D4E90801084369681D
:100AA00021F4741108436860C6F86090FFF74CFDAC
:100AB000044606E025E000BFFFF746FD001B0228C4
:100AC00009D828688001F7D51BE000BFFFF73CFD7F
:100AD000001B022802D90320BDE8F88F2868800196
:100AE000F4D40EE00128F7D06868226A00F480315F
:100AF000914204D1616A00F47010884201D0012053
:100B0000EAE70020E8E7000000100240000042424F
:100B10008004424210000020007000407047000036
:100B200038B50446006842688168C9434B0606D55B
:100B3000CB0704D1D3435B0601D4216C05E08B07BE
:100B400008D4D3431B0605D4616C01B02046BDE830
:100B5000304008478B0601D54B0646D4D3439B064D
:100B600043D44B060AD494F85130032B3ED0636D26
:100B700043F004036365C36883680093890609D45E
:100B8000616D41F00101616581680091016821F0AA
:100B900040010160606D002827D02068416821F085
:100BA000E0014160012084F85100900722D02068C4
:100BB000416821F003014160104DE06C40B1456394
:100BC000E06CFFF769FB18B1606D40F040006065B4
:100BD000A06C002809D04563A06CFFF75DFB0028DE
:100BE00003D0606D40F04000606538BDC16880682A
:100BF000009038BD2046FFF791FF38BDC9170008A7
:100C000070B5040009D0606A002540B125616561B6
:100C1000A56294F8510040B10CE0012070BD6068FD
:100C2000B0F5827FF4D0E561F2E784F850502046B9
:100C300000F040F8022084F851002068016821F09B
:100C400040010160A088218900F4827001F4044110
:100C50000843A18901F400610843217C01F00201ED
:100C60000843217D01F001010843218B01F400714B
:100C70000843217F01F03801084394F8201001F067
:100C800080010843218D01F4005108432168086068
:100C9000A069042101EA1040216848602068C16908
:100CA00021F40061C1616565012084F851000020D4
:100CB00070BD000030B585B000240094019402940A
:100CC00003940068184988422BD11848816941F47F
:100CD00080518161816901F480510491816941F001
:100CE000040181618069124D00F004000490A0208D
:100CF0000090022001900320039069462846FFF7E8
:100D000029FB4020CDE90004694628460294FFF7FC
:100D100021FB002211462320FFF782FC2320FFF74E
:100D200071FC05B030BD00000030014000100240F1
:100D3000000801402DE9FF4F81B0044690F85000B3
:100D400000260E9F1D4693464FF0010901280FD043
:100D50004FF0010A84F850A0FFF7F6FB804694F8A4
:100D60005100616801280DD0B1F5827F08D103E000
:100D7000022005B0BDE8F08FA16809B9042801D0B0
:100D80000226C9E00298002865D0BBF1000FFBD015
:100D9000002DF9D094F85100042802D0052084F8E1
:100DA000510000206065C4F838B0E587A587029936
:100DB0002163E586A5862064606420680168490691
:100DC00003D4016841F040010160E068B0F5006FB4
:100DD000606803D0F0B3012D47D081E008B1012D48
:100DE0003CD1206B21680088C860206B801C206388
:100DF000E08E401EE08631E02068816889070FD5CB
:100E0000E18E69B1B9F1010F0AD1216B0988C16086
:100E1000206B801C2063E08E401EE0864FF00009AE
:100E200020688168C9070CD0E18F51B1C068A16BFF
:100E30000880A06B801CA063E08F401EE0874FF00D
:100E40000109FFF781FBA0EB0800B84206D3781C2C
:100E500004D001E009E05BE003265BE0E08E0028BF
:100E6000CAD1E08F0028C7D140E0206B216800780C
:100E70000873206B401C2063E08E401EE0862FE04C
:100E80002068816889070FD5E18E69B1B9F1010F3A
:100E90000AD1216B09780173206B401C2063E08E1E
:100EA000401EE0864FF0000920688168C9070CD019
:100EB000E18F51B1C068A16B0870A06B401CA063AA
:100EC000E08F401EE0874FF00109FFF73DFBA0EBEC
:100ED0000800B84202D3781C02D0BAE7002FB8D07D
:100EE000E08E0028CCD1E08F0028C9D14246394697
:100EF000204600F071FC18B10126202060650BE04F
:100F0000A06818B92068C16880680090606D08B159
:100F1000012601E084F851A0002084F850003046FA
:100F200027E710B5401EB0F1807F01D3012010BD2E
:100F30004FF0E02460610F21601700F05FFD00209A
:100F4000A06107202061002010BD7047704700009D
:100F500070B590F83C20012A26D0012480F83C404E
:100F6000022280F83D2003685A689D6822F07006CE
:100F70000A6832435A600D4B02689A4208D0B2F1B7
:100F8000804F05D00A4B9A4202D00A4B9A4204D1B4
:100F9000496825F080031943916080F83D400021A5
:100FA00080F83C10084670BD022070BD002C014046
:100FB000000400400008004010B5040003D094F87D
:100FC0003D0010B107E0012010BD002084F83C0076
:100FD000204600F01FF8022084F83D00211D206803
:100FE00000F0A0FC012084F8460084F83E0084F85C
:100FF0003F0084F8400084F8410084F8420084F8FF
:10100000430084F8440084F8450084F83D00002043
:1010100010BD000008B50068B0F1804F12D10A4839
:10102000C16941F00101C161C069002200F0010005
:10103000009011461C20FFF7F3FABDE808401C2081
:10104000FFF7E0BA08BD00000010024070B504468A
:1010500090F83C000025012817D0012684F83C6058
:10106000022084F83D002068826822F0770222F492
:101070007F4282600868502838D00DDC20284FD08D
:1010800005DC90B3102811D14AE0022070BD302851
:1010900046D040280AD13BE060282FD070280DD0E0
:1010A000B0F5805F03D0B0F5005F12D0012584F861
:1010B0003D60002084F83C00284670BDCB68D1E933
:1010C0000121206800F064FC2068816841F077010C
:1010D00009E0CB68D1E90121206800F059FC2068C3
:1010E000816841F480418160E1E719E0CA6849689C
:1010F000206800F05FFC5021206806E0CA6849685B
:10110000206800F068FC6021206800F04BFCCEE70E
:10111000CA684968206800F04DFC40212068F4E767
:10112000226801461046F0E7704770B50446006833
:1011300001694FF00005C943890715D4C168C94347
:10114000890711D4E91E0161012020772068806998
:101150008007204602D0FFF7E7FF04E000F098F890
:10116000204600F096F8257720680169C9434907B1
:1011700017D4C168C943490713D46FF00401016152
:10118000022020772068806910F4407F204602D03A
:10119000FFF7CAFF04E000F07BF8204600F079F882
:1011A000257720680169C943090716D4C168C94376
:1011B000090712D46FF0080101610420207720682C
:1011C000C0698007204602D0FFF7AEFF04E000F0C0
:1011D0005FF8204600F05DF8257720680169C94373
:1011E000C90617D4C168C943C90613D46FF01001EA
:1011F0000161082020772068C06910F4407F2046F4
:1012000002D0FFF791FF04E000F042F8204600F022
:1012100040F8257720680169C943C90708D1C1682A
:10122000C943C90704D1891E0161204600F032F884
:1012300020680169C943090609D4C168C943090680
:1012400005D46FF0800101612046FFF77EFE206823
:101250000169C943490609D4C168C943490605D48F
:101260006FF040010161204600F015F82068016927
:10127000C94389060BD4C168C943890607D46FF0F6
:10128000200101612046BDE87040FFF75FBE70BDE0
:101290007047704770477047FEE700002DE9F04146
:1012A00086B0002423480094019402940394816939
:1012B00041F020018161816901F02001049181697F
:1012C00041F004018161816901F0040104918169A7
:1012D00041F0080181618069174F00F00800049017
:1012E000002218213846FFF72AF9DFF85080002243
:1012F00001214046FFF723F9182001250226CDE9F8
:101300000005CDE9024669463846FFF723F8039603
:101310000095CDE9015469464046FFF71BF8CDE939
:101320000064694640460294FFF714F806B0BDE831
:10133000F08100000010024000080140000C014054
:10134000104810B50E4901604FF4827141600021D0
:101350008160C1604FF400720161C0E90512202272
:10136000C0E90721416281620A21C162FFF748FC9E
:10137000002803D0BDE81040FEF78BBF10BD000071
:10138000003001401C00002010B586B00024164833
:10139000009401940294039404944FF080410594C6
:1013A00001604721C0E9011440F2E731C0E90314AC
:1013B0008461FFF701FE08B1FEF76BFF4FF4805028
:1013C000009069460848FFF741FE08B1FEF761FF4B
:1013D000049404A904480594FFF7BAFD002801D03D
:1013E000FEF757FF06B010BD74000020FEE7FEE7D1
:1013F0002DE9F041044601F0700700F061F80D4E50
:101400000546002208213046FFF799F8D4E900206C
:1014100027219047D4E9002047EA0501904701229F
:1014200008213046FFF78BF82046BDE8F04100F078
:1014300047B800000008014000F0F0BA2DE9F04183
:10144000DFF8408017460C4605461E46002208215C
:101450004046FFF774F8D5E9002021469047002464
:1014600006E0D5E90020FF2190473855641CE4B21E
:10147000B442F6D34046BDE8F04101220821FFF70F
:101480005EB800000008014070B50C4D0E460446E1
:10149000002208212846FFF752F8D4E900203146FF
:1014A0009047D4E90020FF219047044601220821FB
:1014B0002846FFF744F8204670BD000000080140B0
:1014C00070B5094D0446002208212846FFF737F879
:1014D000D4E900200721904704460122082128462C
:1014E000FFF72DF8204670BD00080140052B00D9FC
:1014F0000523052900D905210A31C9B200F066B8D3
:10150000052A00D9052213460A46102100F05EB8CC
:101510002DE9F0412B4F0E460546002422460821B6
:101520003846FFF70CF8D5E90020E1219047012269
:1015300008213846FFF703F8234F002201213846DF
:10154000FEF7FDFF96F820303246A021284600F035
:101550003DF8012211463846FEF7F1FF4FF4FA76C6
:101560000FE00120FEF7E4FE2046641CA4B2B04266
:1015700007D1284600F0A0F80021284600F008F91D
:1015800005E002213846FEF7D5FF0128E9D0072102
:101590002846FFF779FF044602460721284600F057
:1015A0003BF8E00607D5FF22E121284600F034F899
:1015B0001020BDE8F081A00601D52020F9E7FF202A
:1015C000F7E7000000080140000C01402DE9F04160
:1015D000DFF8408017460C4605461E4600220821CB
:1015E0004046FEF7ACFFD5E9002044F020019047CB
:1015F000002405E0D5E90020395D9047641CE4B281
:10160000B442F7D34046BDE8F04101220821FEF77D
:1016100096BF0000000801402DE9F0410C4E17462E
:101620000D460446002208213046FEF788FFD4E923
:10163000002045F020019047D4E90020394690472A
:101640003046BDE8F04101220821FEF778BF0000D6
:10165000000801402DE9FF4114A10746D1E900012E
:10166000CDE90001002002906C4602AD4FF4FA660D
:10167000039005236A4610213846FFF7A7FF05238C
:1016800002AA10213846FFF7D9FE0020215C2A5C0F
:10169000914203D1401CC0B20528F7D3052803D0DE
:1016A0003046FEF745FEE4E7BDE8FF81A5A5A5A508
:1016B000A5000000704700001CB52AA10446D1E92E
:1016C0000001CDE90001012211462848FEF737FF4D
:1016D00070212046FFF78CFE01221C212046FFF7D7
:1016E0009BFF07221D212046FFF796FF1C21204665
:1016F000FFF7CAFE1D212046FFF7C6FE0A22002181
:101700002046FFF789FF002201212046FFF784FFD2
:10171000002202212046FFF77FFF002204212046FD
:10172000FFF77AFF032211462046FFF775FFFF22DD
:1017300004212046FFF770FF3C2205212046FFF7D9
:101740006BFF262206212046FFF766FF0522694629
:101750002046FFF7D5FE05236A4600212046FFF705
:10176000C5FE1CBD3443101001000000000C0140F8
:1017700004480349416404484160044901607047DA
:101780001C000020BC0000201400002039140008B8
:1017900070B50C4605460021FFF776FE024614B1EF
:1017A000012C03D004E020F0010201E040F001022E
:1017B0002846BDE870400021FFF72EBF0148FFF723
:1017C000AFB900001C00002010B5406A0021C1879D
:1017D000C186FFF7A3F910BD38B50B460092044649
:1017E0000022802100F008F8002804D0606D40F04D
:1017F00020006065032038BD2DE9F8431E46914660
:1018000088460446089DFEF79FFE401B351AFEF7EA
:101810009BFE074625480068C0F3CB30684338E09C
:10182000701C37D0FEF790FEC01BA84203D215B142
:10183000009860B32CE02068416821F0E00141602D
:101840006068B0F5827F0BD1A068B0F5004F02D080
:10185000B0F5806F04D12068016821F0400101607B
:10186000A06AB0F5005F09D12068016821F4005139
:1018700001602068016841F400510160012084F892
:101880005100002084F850000320BDE8F8830025B3
:10189000401E00902068816838EA010004D00021D1
:1018A0004945BDD10020F0E70121F9E710000020F3
:1018B0007047FEF74FBE30B58FB028216846FEF75F
:1018C00083FC14210AA8FEF77FFC01210804CDE95E
:1018D00000100024029402250491CDE907504FF432
:1018E000E01009906846FEF789FF08B172B6FEE77E
:1018F0000F20CDE90A054FF48060CDE90C400221AC
:101900000AA80E94FEF7BEFE002801D072B6FEE7CC
:101910000FB030BD704700000148FFF706BC000063
:1019200074000020F0B50268164B174C174D4FF0AD
:101930008047984205D0B84203D0A04201D0A842C7
:1019400003D122F070064A683243984205D0B8426B
:1019500003D0A04201D0A84203D122F44074CA6847
:1019600022434C6922F08002224302608A68C262EC
:101970000A688262984201D10969016301214161CB
:10198000F0BD0000002C01400004004000080040B1
:1019900010B5846842EA032224F47F440A432243B8
:1019A000826010BD826822F070020A4342F0070193
:1019B0008160704710B5036A046A24F00104046270
:1019C000846924F0F00444EA021423F00A020A4372
:1019D0008461026210BD10B5036A046A24F0100429
:1019E0000462846923F0A00324F4704444EA0232C0
:1019F00043EA01118261016210BDFEE70907090E89
:101A0000002804DB00F1E02080F80014704700F0AB
:101A10000F0000F1E02080F8141D704703B583B07B
:101A200000218DF804104FF6FF710091012301AAE7
:101A300004A9FFF77FF99DF8040005B000BD000080
:101A4000FEF790FDFFF737FFFFF728FCFFF778FC64
:101A5000FFF79AFCFFF78CFE1248FFF72DFE0021DE
:101A60001048FFF795FE104900200854401CC0B2F2
:101A70002028FAD320200D4C81F820000948FFF7D8
:101A8000E9FD09490748FFF743FD07210548FFF72E
:101A9000FBFC207017210348FFF7F6FC6070FFF78E
:101AA00067FEEBE714000020BC00002000000020CF
:101AB000010202030405060708090A0B0C0D0E0FAC
:101AC00010100000000000000000010203040607DF
:101AD00008090000F41A0008000000201C000000A3
:101AE00028010008101B00081C0000204C07000003
:101AF0004401000800000000010000001000000088
:101B0000000000000024F4000000000000000000BD
:04000005080000ED02
:00000001FF
